:020000040000FA
:1000000018F09FE518F09FE518F09FE518F09FE5C0
:1000100018F09FE50000A0E1F0FF1FE518F09FE554
:100020005800000040000000981B0000480000003D
:100030004C000000000000005000000054000000D0
:10004000FEFFFFEAFEFFFFEAFEFFFFEAFEFFFFEA18
:10005000FEFFFFEAFEFFFFEA94009FE5AA10A0E37F
:100060005520A0E32430A0E3043080E50130A0E374
:10007000003080E50C1080E50C2080E5083090E52C
:10008000013B13E2FCFFFF0A0330A0E3003080E5F0
:100090000C1080E50C2080E558009FE50410A0E3DB
:1000A000041080E50210A0E3001080E548009FE501
:1000B000DBF021E300D0A0E1080040E2D7F021E32B
:1000C00000D0A0E1080040E2D1F021E300D0A0E19F
:1000D000080040E2D2F021E300D0A0E1030C40E2AE
:1000E000D3F021E300D0A0E1030C40E20C009FE537
:1000F00010FF2FE180C01FE000C01FE0C03C0040A7
:1001000004010000000000EB2E0000EB2C008FE249
:10011000000C90E800A08AE000B08BE001704AE299
:100120000B005AE10000001A260000EB0F00BAE8AD
:1001300018E04FE2010013E303F0471013FF2FE133
:10014000101C0000301C0000102052E27800B02883
:100150007800A128FBFFFF8A822EB0E13000B02892
:100160003000A12800409045004081451EFF2FE14E
:100170000030B0E30040B0E30050B0E30060B0E313
:10018000102052E27800A128FCFFFF8A822EB0E105
:100190003000A128003081451EFF2FE101C08FE211
:1001A0001CFF2FE11FB5059886460FBC009C02B0CE
:1001B0007047000001C08FE21CFF2FE130B475468C
:1001C000AE4630BC70470000330600EB0210A0E1E1
:1001D000F1FFFFEB1CC09FE50FC08CE001001CE3AA
:1001E0000DE08F120FE0A0011CFF2FE101C08FE294
:1001F0001CFF2FE101F082FC130300007847C0468A
:1002000003002DE9EAFFFFEB0300BDE8420600EB27
:100210000C009FE50C109FE504209FE508309FE54A
:100220001EFF2FE1A0360040A8390040A036004054
:1002300001002DE900204DE90000A0E104D04DE2CD
:100240000100BDE8004020E900E0A0E10100BDE8B8
:10025000FF7F4EE90000A0E13CE04EE200004FE1EC
:1002600001002EE94C009FE5000090E501002EE919
:1002700044009FE5001090E500E081E53C009FE52B
:100280000FE0A0E110FF2FE12C009FE5000090E5BA
:1002900000E090E51C009FE50200BEE8001080E54C
:1002A0000100BEE800F06FE1FF7FDEE80000A0E1A2
:1002B0003CE09EE504F05EE26C00004088000040F7
:1002C0007506000000205BE0410041185C4A515C6B
:1002D000002902D0012950D127E041004118584A95
:1002E0008918897800290CD15649896842008218FA
:1002F000534BD218537801229A409143514A91604E
:1003000012E0410041184E4A8918897801290BD121
:100310004C49896842008218494BD218537801220F
:100320009A401143474A916028E041004118444AED
:100330008918897800290CD14249896942008218BC
:100340003F4BD218537801229A4091433D4A916124
:1003500012E0410041183A4A8918897801290BD1E5
:100360003849896942008218354BD21853780122E6
:100370009A401143334A916100E0C046C046401C98
:100380003149098888429FDB70470200002A02D069
:10039000012A0CD105E02B4B1B68CB40D807C00FBE
:1003A00005E0284B1B69CB40D807C00FC046C046AC
:1003B000704710B4002802D0012827D113E0002A8A
:1003C00007D1204BDB6801248C4023431D4CE360A4
:1003D00008E0012A06D11B4B5B6801248C402343B3
:1003E000184C636012E0002A07D1164BDB69012428
:1003F0008C402343134CE36108E0012A06D1114BE2
:100400005B6901248C4023430E4C6361C04610BCE1
:100410007047002802D0012810D107E0094AD268AD
:1004200001238B405A40074BDA6007E0054AD26946
:1004300001238B405A40034BDA61C046C0467047E7
:1004400000000040008002E05A000040C0463D48E5
:100450000078002817D13C480078012813D13B4888
:100460000078002807D101221121FFF7A2FF012007
:100470003649087007E0002211211000FFF799FFAC
:100480000020324908702F4800782F49087001F089
:100490002DFCDCE7C04610210020FFF776FF002886
:1004A00002D12849087007E010210020FFF76DFFF6
:1004B000012801D12349087001F018FCEBE77D20E9
:1004C000C0002349C8600800406801210843204952
:1004D0004860704710B5E120400200F04FF8FFF788
:1004E000F1FEFFF7ECFF01201A49087010BC08BCB0
:1004F000184782B0FFF7EEFF174801210023C822FA
:100500000091019015A1174800F05CFB16480121ED
:100510000023C8220091019014A1174800F052FB5B
:1005200000F0FAFEC046FEE7094840680221084391
:100530000749486008004068022188430449486030
:100540007047000064000040650000406600004005
:10055000008000E000C11FE06000004050425F5496
:1005600061736B00950400005C0000404C45445FE3
:100570005461736B000000004D04000070B505006D
:100580005A480068012109040843584908600800D6
:100590000068012189040843544908602E01310094
:1005A000534801F0C7FA04005248007B80210843F9
:1005B000504908730C70240A0C710720087203203C
:1005C00008734814C068802188434B49C8600800FC
:1005D0000069802108434849086148484849486003
:1005E000272048494860434800790321084341498E
:1005F000087170BC08BC1847010043480078012806
:1006000009D10020404A10704048007800060016CA
:100610000870012070470020FCE7364A10707047D0
:1006200070B505000C003A480078002820D1002D54
:100630001ED038490C7036490C70002303E0E85C8A
:100640003549C8545B1CA342F9DB31490A78097863
:10065000491E2F4E31702F490978891A2E4A515C54
:1006600009060816FFF7D9FF012070BC08BC18471F
:100670000020FAE710B41F4A107A2EE00207120F8A
:10068000022A0BD0042A1CD0062A02D00C2A20D120
:1006900016E0184A127D110609161BE01C4A127852
:1006A000002A0CDD1A4A13781278521E184C227058
:1006B000184A1278D21A184B9A5C0E4B1A7009E03D
:1006C000C0460C4A1278114B1A7001220E4B1A7058
:1006D00000E0C046C046074A107AC207D20F002A7F
:1006E000CCD00022044B1A6310BC704700C002E05B
:1006F00000879303000001E000F0FFFF30020000DC
:1007000000F1FFFF00F2FFFF6800004067000040BB
:100710006A00004069000040C400004030B403009B
:10072000001F0C1D0460001F3F4C0460001F03608D
:10073000001F3E4C0460001F3D4C0460001F3D4CF8
:100740000460001F3C4C0460001F3C4C0460001F10
:100750003B4C0460001F3B4C0460001F3A4C04609B
:10076000001F3A4C0460001F394C0460001F394CD4
:100770000460001F64100460001F0260001F1F243B
:100780000460CC07E40F002C03D0202504682C4320
:100790000460001F0024046030BC704700212E4A12
:1007A000D1602E4811008861032151615114C9683C
:1007B000102291432A4AD160110009691022114385
:1007C000274A11612749284A11602421274A1160CC
:1007D0000121214A5160704710B5FFF7DFFF01F09A
:1007E000BDF9002010BC08BC1847704710B501F0D7
:1007F00087FA1F480068401C1D49086010BC08BCEF
:10080000184710B51A48006800280AD01848006830
:10081000401E1749086008000068002801D101F057
:100820007BFA10BC08BC1847AAAAAAAA1212121274
:1008300011111111101010100909090908080808F0
:100840000707070706060606050505050404040450
:100850000303030302020202004000E060EA00001A
:1008600000F0FFFF7408000000F1FFFF00F2FFFF3F
:100870006C0000400F502DE91D0500EB0100A0E3C6
:1008800010109FE5000081E50000A0E3D00F00E517
:100890000F50BDE804F05EE2004000E0454AD00899
:1008A000C000454A10600022434B5A60434A444B03
:1008B0005A6000221A600100404A4A601A000A6029
:1008C0007047F8B504000020009000F029FB3D4877
:1008D0000068002804D1FFF7E1FF012039490860D2
:1008E000002C09D008346007400F002804D06007AE
:1008F000400F0821081A0419002C31D02F488442D7
:100900002ED22D4F3800056801E02F002D68686851
:10091000A04202D228680028F7D1294885421FD07A
:10092000386808300090286838606868001B102814
:1009300010D92E196868001B70606C6071681E48C1
:1009400000E00068026852688A42FAD302683260A6
:100950000660C0461C4968680968081A1A49086098
:1009600000F025FA0098F8BC08BC184770B50600DE
:100970003500002E16D0083D2C0000F0D1FA616839
:100980000D4800E00068026852688A42FAD30268A3
:10099000226004600C496068096840180A490860D0
:1009A00000F005FA70BC08BC18470748006870479B
:1009B000704700009401004070000040F8330000D0
:1009C00078000040840000408000004001000831B1
:1009D00041600021C943816001000831C1600161AB
:1009E00000210160704700210161704742684A6040
:1009F00093688B60936859609160086103685B1C21
:100A00000360704710B402000B685C1C002C01D11D
:100A1000106907E01000083000E04068446824686E
:100A20009C42FAD944684C604C68A160886041607F
:100A30000A611468641C146010BC704701000A69E4
:100A40004B6888689860081D09C8586050688842DB
:100A500001D188685060002008611068401E106055
:100A60001068704710B5002406E014216143FE4A67
:100A70008818FFF7ABFF641C042CF6D3FB48FFF784
:100A8000A5FFFB48FFF7A2FFFA48FFF79FFFFA48D0
:100A9000FFF79CFFF948FFF799FFF448F849086011
:100AA000F348F849086010BC08BC184710B50400AA
:100AB000FFF79CFEF4480068401CF3490860F348C7
:100AC0000068002808D1F148046008000068012887
:100AD0000ED1FFF7C7FF0BE0ED480068002807D1F3
:100AE000EA480068C06AE16A884201D8E7480460C1
:100AF000E8480068401CE7490860E749E06A09687F
:100B0000884202D9E449E06A08601422E16A51434C
:100B1000D54A8818211DFFF769FFFFF772FEDC48F0
:100B20000068002801D0D948006810BC08BC1847EC
:100B3000FFB581B00E000A9F0C9C216B0398401EEC
:100B40008000081800900098C008C0000090002E97
:100B500011D0002508E0715D200034304155705DF2
:100B6000002800D102E06D1C082DF4D3C0460021FE
:100B70003B20015502E0002134200155042F00D311
:100B80000327E762201DFFF72EFF20001830FFF734
:100B90002AFF24610420C01BA06164620020E0637E
:100BA000002140200155049A684603C8FFF7B6FDAE
:100BB00020600B98002801D00B98046005B0F0BCB1
:100BC00008BC1847FFB585B01700B800FFF779FEDD
:100BD0000600002E0BD04420FFF773FE0400002C0B
:100BE00001D0266304E03000FFF7C0FE00E00024DF
:100BF000002C10D000220EA803C86B4613C303922A
:100C00003A00089B05A803C8FFF792FF2000FFF7F2
:100C10004DFF012501E00025ED43280009B0F0BC9F
:100C200008BC1847964909680968002901D10121C3
:100C300000E00021002904D00021C943974A116037
:100C400006E08F490968C968C868944A416811601C
:100C5000704710B50400206BFFF788FE2000FFF7F7
:100C600085FE10BC08BC184770B50500FFF7BEFD37
:100C7000002D02D18548006800E028000400201DF6
:100C8000FFF7DCFEA06A002803D020001830FFF731
:100C9000D5FE80480068401C7E4908607B4800689B
:100CA000844209D1211D7448FFF7A0FE7C480068EA
:100CB000401C7B49086009E073480068401E724987
:100CC00008602000FFF7C5FFFFF7ACFFFFF799FDB5
:100CD0006F480068002805D06C480068844201D144
:100CE00001F004F870BC08BC1847F8B5002000906B
:100CF0006C480068002851D16B480068451C6A4860
:100D00000560002D0FD15E4807685E4800685C49A9
:100D100008605C48076065480068401C63490860DB
:100D2000FFF780FFC0465D480068854235D3C04666
:100D3000534800680068002801D1012000E000202D
:100D4000002804D00020C0435449086024E04C48E7
:100D50000068C068C4686668B54202D24F48066041
:100D60001AE0201DFFF76AFEA06A002803D02000C9
:100D70001830FFF763FE4849E06A0968884202D9E3
:100D80004549E06A08601422E16A5143364A8818EE
:100D9000211DFFF72BFECBE7C04604E04448006866
:100DA000401C434908600098F8BC08BC184770B55F
:100DB00000240026FFF71AFD3A480068401E394912
:100DC000086008000068002848D12F480068002803
:100DD00044D022E02748C068C46820001830FFF7DC
:100DE0002DFE201DFFF72AFE2B49E06A0968884284
:100DF00002D92949E06A08601422E16A51431A4A7B
:100E00008818211DFFF7F2FD2049E06A0968C96AC8
:100E1000884202D30120274908601648006800284C
:100E200001D1012000E000200028D3D0002C01D007
:100E3000FFF7F8FE1E480568002D0DD0C046FFF7ED
:100E400054FF002802D001201A4908606D1E002DB1
:100E5000F5D100201649086016480068FFF7D1FC5C
:100E6000300070BC08BC18478C350040DC350040B1
:100E7000F035004004360040183600402C36004063
:100E80008C00004090000040980000408800004026
:100E9000A4000040B4000040A0000040B8000040A2
:100EA00094000040C00000409C000040B0000040A2
:100EB000A8000040AC000040F8B505000E00FE4858
:100EC0000768FE480068001DFFF7B8FD681C002891
:100ED00008D1002E06D0F9480168091DF848FFF72F
:100EE00085FD1AE07C19F54800684460BC4207D2D1
:100EF000F2480168091DF3480068FFF783FD0CE024
:100F0000EE480168091DF0480068FFF77BFDEF48D7
:100F10000068844201D2ED480460F8BC08BC184760
:100F2000EB480068401CEA4908607047F3B581B09F
:100F3000040000200090FFF7F3FFDF4806682168F7
:100F400002980D182068B04207D92068A8420BD932
:100F5000B54209D90120009006E02068A84201D8D6
:100F6000B54201D90120009025600098002803D0E7
:100F7000A81B0021FFF7A0FFFFF719FF0700002FB4
:100F800001D100F0B3FEFEBC08BC184770B50400E8
:100F90000025002C08D0FFF7C3FF00212000FFF739
:100FA0008BFFFFF704FF0500002D01D100F09EFE2E
:100FB00070BC08BC184770B50400FFF717FC002C84
:100FC00002D1BE48006800E020000600F56AFFF785
:100FD00018FC280070BC08BC184710B4010000239E
:100FE000002902D1B54C246800E00C002200D06A30
:100FF00010BC7047FEB507000D0000200090042DC6
:1010000000D30325FFF7F2FB002F02D1AB480068A5
:1010100000E038000400E66AAE423FD0B5420BD98A
:10102000A648006884420DD0A4480068C06AA8425F
:1010300008D80120009005E0A0480068844201D152
:1010400001200090E06A0190E562A069C00FC0072E
:10105000002802D10420401BA0616169142201987C
:1010600050439C4A8018814201D1012000E00020B9
:10107000002812D0201DFFF7E1FC9749E06A0968BB
:10108000884202D99449E06A08601422E16A514317
:10109000904A8818211DFFF7A9FCC046FFF7B1FB55
:1010A000FEBC08BC18478A480068002803D001200D
:1010B0008A49086027E0002088490860864801685E
:1010C00000E0491E14204843824A1058002801D1EC
:1010D000012000E000200028F3D114224A437D4B78
:1010E000D018426852684260020008324368934256
:1010F00002D14268526842604268D2686F4B1A60FF
:1011000075480160C046704770B50500FFF76EFB7B
:10111000002D02D16948006800E028000400201D6D
:10112000FFF78CFCA06A002803D020001830FFF7DE
:1011300085FC211D6248FFF759FC4020005D012815
:1011400002D1002140200155FFF75BFB6448006895
:10115000002805D0FFF74AFBFFF764FDFFF751FBBE
:1011600056480068844212D15D480068002802D0C9
:1011700000F0BCFD0BE0524800685A4909688842FB
:1011800003D100204D49086001E0FFF78CFF70BCDF
:1011900008BC184710B4010000200A00484C5369ED
:1011A000A34201D1012300E00023002B11D04E4CBB
:1011B000936AA34201D1012300E00023002B08D150
:1011C000936A002B01D1012300E00023002B00D003
:1011D000012010BC704770B505002C00374800682E
:1011E00084421FD0002C1DD0FFF700FB2000FFF72A
:1011F000D1FF002814D0201DFFF720FC3649E06AFB
:101200000968884202D93449E06A08601422E16A18
:101210005143304A8818211DFFF7E8FB2748006832
:10122000FFF7EFFA70BC08BC1847F8B505000026B8
:101230002C0000272000FFF7ADFF002823D0244812
:10124000006800281AD11D49E06A0968C96A884205
:1012500000D30126201DFFF7F1FB1F49E06A096852
:10126000884202D91C49E06A08601422E16A5143AD
:10127000184A8818211DFFF7B9FB04E02100183136
:101280001948FFF7B3FB3000F8BC08BC184710B58D
:1012900035E0FFF7ABFA1548C068C468201DFFF7BA
:1012A000CDFB10480068401E0E49086010480068D9
:1012B000401E0F4908601DE09C000040880000406F
:1012C0002C360040900000408C000040B8000040E8
:1012D000C00000408C350040A0000040AC00004041
:1012E000A40000409800004004360040183600403A
:1012F00094000040FFF785FA2000FFF7AAFCFE48A3
:1013000000680028C5D110BC08BC1847C046FFF7CC
:10131000BEFF00F0EBFCFAE71CB5F84800210B001B
:10132000C82200910190F6A1F748FFF74BFC04009A
:10133000012C0CD100F0E4FCA01EF449086001204F
:10134000F34908600020F3490860FFF745FA1CBC28
:1013500008BC184710B500F0D3FC0020EC49086029
:10136000FFF743FA10BC08BC184710B5FFF73EFA68
:10137000E8480468FFF745FA200010BC08BC18478D
:101380000021E44A10687047E34800687047010094
:10139000002902D1E148006800E0080002001000C6
:1013A0003430704770B504000025FFF7B9FDDC4804
:1013B00000680019DA490860FFF7F9FC0500280009
:1013C00070BC08BC184770B505000C00D348016814
:1013D00018312800FFF716FB01212000FFF76CFDF4
:1013E00070BC08BC184770B506000C001500012041
:1013F000C0072043C94909688861C8480168183195
:101400003000FFF7F3FA01212800FFF755FD70BC0B
:1014100008BC184770B50600F068C4682000183092
:10142000FFF70CFBBF480068002813D1201DFFF711
:1014300005FBBD49E06A0968884202D9BA49E06AF9
:1014400008601422E16A5143B84A8818211DFFF749
:10145000CDFA04E021001831B548FFF7C7FAAF49CB
:10146000E06A0968C96A884204D901250120B149A6
:10147000086000E00025280070BC08BC184770B563
:1014800005000E000120C00730432860EC682800EA
:10149000FFF7D4FA201DFFF7D1FAA349E06A0968E3
:1014A000884202D9A049E06A08601422E16A5143E7
:1014B0009E4A8818211DFFF799FA9849E06A096841
:1014C000C96A884202D901209A49086070BC08BCE8
:1014D000184710B50400FFF789F9974800682060A5
:1014E0008C4800686060FFF78CF910BC08BC184796
:1014F000914909680160874909684160704770B582
:1015000006000C00FFF772F9824802687068131A2F
:101510002068401C002801D1002517E0864930686A
:101520000968884204D07068904201D801250DE016
:101530002068984207D92068C01A20603000FFF761
:10154000D7FF002502E0002020600125FFF759F9B0
:10155000280070BC08BC1847012076490860704715
:101560006E49096888696D490968C96A0422511A77
:101570006A4A12689161704770B506000D00FFF766
:1015800035F966480068C06B00280BD1012163481B
:10159000006840300170002D04D02800FFF78CFC5B
:1015A00000F0A4FBFFF72DF9FFF720F95B48006876
:1015B000C46B002C0AD0002E04D0002057490968C3
:1015C000C86303E0601E55490968C8630021534899
:1015D000006840300170FFF714F9200070BC08BCAF
:1015E0001847FFB581B0070014001D00FFF7FEF893
:1015F0004A48006840300078022812D047490968FC
:1016000008003C30C96BB9430160012143480068C0
:1016100040300170002D04D02800FFF74DFC00F091
:1016200065FBFFF7EEF8FFF7E1F8002C03D03B482D
:101630000068C06B2060394800684030007802289C
:1016400001D0002608E03549096808003C30CA6B23
:1016500002998A4302600126002130480068403028
:101660000170FFF7CEF8300005B0F0BC08BC184799
:10167000FFB583B00D0016001F0001200290039CEF
:10168000FFF7B4F8002F01D0E06B38604020005D18
:101690000190022140200155330000F047FB051660
:1016A00004080C0E1700E06B2843E0630FE0E06BCA
:1016B000401CE0630BE0E56309E00198022801D0DB
:1016C000E56301E00020029001E000E0C046C04672
:1016D0000198012837D1201DFFF7B0F91249E06ABF
:1016E0000968884202D91049E06A08601422E16A58
:1016F00051430E4A881821E094000040BC0000408D
:1017000049444C45000000000D130000B8000040A3
:10171000A40000409C000040980000408800004069
:10172000A8000040C0000040A00000408C350040F0
:1017300004360040AC000040B0000040211DFFF71F
:1017400055F96E480068FFF75CF8029807B0F0BCE6
:1017500008BC1847FFB583B00D0016001F0001201C
:101760000190039C00200090002F01D0E06B3860B6
:101770004020005D0290022140200155330000F01E
:10178000D5FA051604080C0E1700E06B2843E06339
:101790000FE0E06B401CE0630BE0E56309E00298BA
:1017A000022801D0E56301E00020019001E000E0A3
:1017B000C046C046029801282BD151480068002835
:1017C00013D1201DFFF73AF94E49E06A09688842B3
:1017D00002D94C49E06A08601422E16A51434A4A3E
:1017E0008818211DFFF702F904E02100183147484D
:1017F000FFF7FCF84149E06A0968C96A884208D9DC
:101800000C98002802D001210C9801600120404969
:101810000860019807B0F0BC08BC1847F8B505008F
:101820000E002C00002000904020075D0221015591
:10183000E06B401CE063012F29D13148006800288B
:1018400013D1201DFFF7FAF82E49E06A0968884293
:1018500002D92C49E06A08601422E16A51432A4AFD
:101860008818211DFFF7C2F804E02100183127482D
:10187000FFF7BCF82149E06A0968C96A884206D9BD
:10188000002E01D001203060012021490860F8BC01
:1018900008BC184770B50500002D02D11748006834
:1018A00000E028000600FEF7A1FF4020805D02282E
:1018B00004D1002140208155012400E00024FEF7DE
:1018C000A0FF200070BC08BC1847F8B504000D004C
:1018D000002C02D10948006800E020000600FEF755
:1018E00085FF06480068C76BF06BA843F063FEF7FE
:1018F00088FF3800F8BC08BC18470000880000408A
:10190000C0000040A00000408C350040043600407C
:10191000AC000040013090E12100004A0020B0E31B
:10192000A03071E01A00003A203271E00F00003A56
:10193000203471E00100003A00C0A0E3200000EA7A
:10194000A03371E0810340200220B2E0203371E037
:10195000010340200220B2E0A03271E08102402069
:101960000220B2E0203271E0010240200220B2E009
:10197000A03171E0810140200220B2E0203171E00D
:10198000010140200220B2E0A03071E0810040203F
:101990000220B2E0011050E00010A0310200A2E0ED
:1019A0001EFF2FE1022111E20010614240C032E02F
:1019B00000006022203271E01D00003A203471E006
:1019C0000F00003A0113A0E1203471E03F2382E3CD
:1019D0000B00003A0113A0E1203471E03F2682E3BE
:1019E0000700003A0113A0E1203471E03F2982E3AF
:1019F0000113A0213F2C8223003071E21D00002A38
:101A00002113A021A03371E0810340200220B2E025
:101A1000203371E0010340200220B2E0A03271E0E7
:101A2000810240200220B2E0203271E00102402019
:101A30000220B2E0A03171E0810140200220B2E03A
:101A4000203171E0010140200220B2E0EBFFFF2ACB
:101A5000A03071E0810040200220B2E0011050E08F
:101A60000010A0310200A2E0CCCFB0E10000604243
:101A7000001061221EFF2FE1CCCFB0E100006042D8
:101A800001402DE90000B0E30000A0E10240BDE804
:101A90001EFF2FE170477047704700000E50A0E115
:101AA0001A0000EB05E0A0E10050B0E10D10A0E14C
:101AB0000A30A0E10700C0E300D0A0E160D08DE2D1
:101AC00020402DE9D1F9FFEB2040BDE80060A0E304
:101AD0000070A0E30080A0E300B0A0E30710C1E322
:101AE00005C0A0E1C009ACE8C009ACE8C009ACE899
:101AF000C009ACE801D0A0E11EFF2FE110B5040041
:101B0000C046C0462000FEF779FB10BC08BC184751
:101B100000009FE51EFF2FE14036004001C08FE22C
:101B20001CFF2FE101491820ABDFFEE72600020071
:101B30001EFF2FE17847C0460020B0E3203171E05E
:101B400090FFFF3AA03271E085FFFF3A203471E048
:101B50007AFFFF3A00C0A0E399FFFFEA7847C0464A
:101B60006C019FE5000090E500E090E564019FE5D1
:101B70000200BEE8001080E50100BEE800F06FE161
:101B8000FF7FDEE80000A0E13CE09EE504F05EE2BD
:101B9000000000EF1EFF2FE104E08EE201002DE9BE
:101BA00000204DE90000A0E104D04DE20100BDE8B5
:101BB000004020E900E0A0E10100BDE8FF7F4EE920
:101BC0000000A0E13CE04EE200004FE101002EE900
:101BD00000019FE5000090E501002EE9F0009FE57F
:101BE000001090E500E081E5EC009FE50FE0A0E14A
:101BF00010FF2FE1D8009FE5000090E500E090E5A0
:101C0000D0009FE50200BEE8001080E50100BEE8BC
:101C100000F06FE1FF7FDEE80000A0E13CE09EE520
:101C200004F05EE201002DE900204DE90000A0E192
:101C300004D04DE20100BDE8004020E900E0A0E151
:101C40000100BDE8FF7F4EE90000A0E13CE04EE26C
:101C500000004FE101002EE978009FE5000090E5CB
:101C600001002EE968009FE5001090E500E081E5A5
:101C700068009FE50FE0A0E110FF2FE1000050E3B6
:101C80000200000A50009FE50FE0A0E110FF2FE1E5
:101C90000100A0E348109FE5000081E544009FE5B6
:101CA000000080E528009FE5000090E500E090E559
:101CB00020009FE50200BEE8001080E50100BEE8BC
:101CC00000F06FE1FF7FDEE80000A0E13CE09EE570
:101CD00004F05EE2880000406C000040A7100000A5
:101CE000EB0C0000004000E030F0FFFF7847C046FA
:101CF000A6FFFFEA00C09FE51CFF2FE1EB0C0000F0
:101D00007847C04600000FE1801080E301F021E138
:101D1000800000E21EFF2FE17847C04600000FE17F
:101D20008000C0E300F021E11EFF2FE17847C046AC
:101D300001C05EE50C0053E10100003A0C30DEE723
:101D4000000000EA0330DEE783C08EE01CFF2FE1D5
:101D5000701D000000000040C400000048010000A9
:101D6000341E0000C4000040FC3B00007001000075
:101D70000010000011010012010013010014010005
:101D80001501001601001701001801001901001AC1
:101D900001001B01001D01001E01001F01011001B7
:101DA00001110101120101130101140101150101C9
:101DB0001601011701011801011901011A01011B86
:101DC00001011D01011E01011F011E000000000094
:101DD0000000000000000000000000000F270000CD
:101DE00000000000000000000000000000000000F3
:101DF000F8330000000000000000000000000000B8
:101E000000000000000000000000000000000000D2
:101E100000000000000000000000000000000000C2
:101E200000000000000000000000000000000000B2
:041E300000000000AE
:0400000500000104F2
:00000001FF
